{
  "contractName": "Court",
  "abi": [
    {
      "inputs": [],
      "payable": false,
      "stateMutability": "nonpayable",
      "type": "constructor"
    },
    {
      "constant": false,
      "inputs": [
        {
          "name": "_courtId",
          "type": "string"
        },
        {
          "name": "_firstParty",
          "type": "string"
        },
        {
          "name": "_secondParty",
          "type": "string"
        },
        {
          "name": "_judge",
          "type": "string"
        },
        {
          "name": "_FIR",
          "type": "string"
        },
        {
          "name": "_caseId",
          "type": "string"
        },
        {
          "name": "_caseDescription",
          "type": "string"
        },
        {
          "name": "_startDateTime",
          "type": "string"
        }
      ],
      "name": "registerCase",
      "outputs": [],
      "payable": false,
      "stateMutability": "nonpayable",
      "type": "function"
    },
    {
      "constant": true,
      "inputs": [],
      "name": "getNumCasesGoingOn",
      "outputs": [
        {
          "name": "",
          "type": "uint256"
        }
      ],
      "payable": false,
      "stateMutability": "view",
      "type": "function"
    },
    {
      "constant": true,
      "inputs": [
        {
          "name": "index",
          "type": "uint256"
        }
      ],
      "name": "getCaseGoingOn",
      "outputs": [
        {
          "name": "",
          "type": "string"
        }
      ],
      "payable": false,
      "stateMutability": "view",
      "type": "function"
    },
    {
      "constant": false,
      "inputs": [
        {
          "name": "_caseId",
          "type": "string"
        },
        {
          "name": "_description",
          "type": "string"
        },
        {
          "name": "_fileHash",
          "type": "string"
        },
        {
          "name": "_evidenceType",
          "type": "string"
        },
        {
          "name": "_createdDateTime",
          "type": "string"
        }
      ],
      "name": "registerEvidence",
      "outputs": [],
      "payable": false,
      "stateMutability": "nonpayable",
      "type": "function"
    },
    {
      "constant": true,
      "inputs": [
        {
          "name": "caseId",
          "type": "string"
        }
      ],
      "name": "getCaseById",
      "outputs": [
        {
          "name": "",
          "type": "string"
        },
        {
          "name": "",
          "type": "string"
        },
        {
          "name": "",
          "type": "string"
        },
        {
          "name": "",
          "type": "uint256"
        },
        {
          "name": "",
          "type": "string"
        },
        {
          "name": "",
          "type": "string"
        }
      ],
      "payable": false,
      "stateMutability": "view",
      "type": "function"
    },
    {
      "constant": true,
      "inputs": [
        {
          "name": "caseId",
          "type": "string"
        }
      ],
      "name": "getEvidenceCount",
      "outputs": [
        {
          "name": "",
          "type": "uint256"
        }
      ],
      "payable": false,
      "stateMutability": "view",
      "type": "function"
    },
    {
      "constant": true,
      "inputs": [
        {
          "name": "caseId",
          "type": "string"
        },
        {
          "name": "evidenceId",
          "type": "uint256"
        }
      ],
      "name": "getEvidenceById",
      "outputs": [
        {
          "name": "",
          "type": "string"
        },
        {
          "name": "",
          "type": "uint256"
        },
        {
          "name": "",
          "type": "string"
        },
        {
          "name": "",
          "type": "string"
        },
        {
          "name": "",
          "type": "string"
        },
        {
          "name": "",
          "type": "string"
        }
      ],
      "payable": false,
      "stateMutability": "view",
      "type": "function"
    }
  ],
  "bytecode": "0x608060405234801561001057600080fd5b506118a2806100206000396000f3006080604052600436106100825763ffffffff7c0100000000000000000000000000000000000000000000000000000000600035041663100e300581146100875780631840dcd9146102f757806329b11cdf146103845780632a18c9ee1461059157806343932774146106fe578063646986fb1461084f578063d3edfad5146108ba575b600080fd5b34801561009357600080fd5b506040805160206004803580820135601f81018490048402850184019095528484526100e09436949293602493928401919081908401838280828437509497506108cf9650505050505050565b60405180806020018060200180602001878152602001806020018060200186810386528c818151815260200191508051906020019080838360005b8381101561013357818101518382015260200161011b565b50505050905090810190601f1680156101605780820380516001836020036101000a031916815260200191505b5086810385528b5181528b516020918201918d019080838360005b8381101561019357818101518382015260200161017b565b50505050905090810190601f1680156101c05780820380516001836020036101000a031916815260200191505b5086810384528a5181528a516020918201918c019080838360005b838110156101f35781810151838201526020016101db565b50505050905090810190601f1680156102205780820380516001836020036101000a031916815260200191505b5086810383528851815288516020918201918a019080838360005b8381101561025357818101518382015260200161023b565b50505050905090810190601f1680156102805780820380516001836020036101000a031916815260200191505b50868103825287518152875160209182019189019080838360005b838110156102b357818101518382015260200161029b565b50505050905090810190601f1680156102e05780820380516001836020036101000a031916815260200191505b509b50505050505050505050505060405180910390f35b34801561030357600080fd5b5061030f600435610e44565b6040805160208082528351818301528351919283929083019185019080838360005b83811015610349578181015183820152602001610331565b50505050905090810190601f1680156103765780820380516001836020036101000a031916815260200191505b509250505060405180910390f35b34801561039057600080fd5b506040805160206004803580820135601f810184900484028501840190955284845261058f94369492936024939284019190819084018382808284375050604080516020601f89358b018035918201839004830284018301909452808352979a99988101979196509182019450925082915084018382808284375050604080516020601f89358b018035918201839004830284018301909452808352979a99988101979196509182019450925082915084018382808284375050604080516020601f89358b018035918201839004830284018301909452808352979a99988101979196509182019450925082915084018382808284375050604080516020601f89358b018035918201839004830284018301909452808352979a99988101979196509182019450925082915084018382808284375050604080516020601f89358b018035918201839004830284018301909452808352979a99988101979196509182019450925082915084018382808284375050604080516020601f89358b018035918201839004830284018301909452808352979a99988101979196509182019450925082915084018382808284375050604080516020601f89358b018035918201839004830284018301909452808352979a999881019791965091820194509250829150840183828082843750949750610efd9650505050505050565b005b34801561059d57600080fd5b506040805160206004803580820135601f81018490048402850184019095528484526105ec94369492936024939284019190819084018382808284375094975050933594506110ae9350505050565b60405180806020018781526020018060200180602001806020018060200186810386528c818151815260200191508051906020019080838360005b8381101561063f578181015183820152602001610627565b50505050905090810190601f16801561066c5780820380516001836020036101000a031916815260200191505b5086810385528a5181528a516020918201918c019080838360005b8381101561069f578181015183820152602001610687565b50505050905090810190601f1680156106cc5780820380516001836020036101000a031916815260200191505b5086810384528951815289516020918201918b01908083836000838110156101f35781810151838201526020016101db565b34801561070a57600080fd5b506040805160206004803580820135601f810184900484028501840190955284845261058f94369492936024939284019190819084018382808284375050604080516020601f89358b018035918201839004830284018301909452808352979a99988101979196509182019450925082915084018382808284375050604080516020601f89358b018035918201839004830284018301909452808352979a99988101979196509182019450925082915084018382808284375050604080516020601f89358b018035918201839004830284018301909452808352979a99988101979196509182019450925082915084018382808284375050604080516020601f89358b018035918201839004830284018301909452808352979a9998810197919650918201945092508291508401838280828437509497506114059650505050505050565b34801561085b57600080fd5b506040805160206004803580820135601f81018490048402850184019095528484526108a89436949293602493928401919081908401838280828437509497506116bd9650505050505050565b60408051918252519081900360200190f35b3480156108c657600080fd5b506108a8611727565b606080606060006060806108e161173b565b6000886040518082805190602001908083835b602083106109135780518252601f1990920191602091820191016108f4565b518151600019602094850361010090810a820192831692199390931691909117909252949092019687526040805197889003820188208054610160601f60026001841615909902909601909116969096049384018390049092028801850190526101408701828152909550869450928592508401828280156109d65780601f106109ab576101008083540402835291602001916109d6565b820191906000526020600020905b8154815290600101906020018083116109b957829003601f168201915b50505050508152602001600182018054600181600116156101000203166002900480601f016020809104026020016040519081016040528092919081815260200182805460018160011615610100020316600290048015610a785780601f10610a4d57610100808354040283529160200191610a78565b820191906000526020600020905b815481529060010190602001808311610a5b57829003601f168201915b5050509183525050600282810180546040805160206001841615610100026000190190931694909404601f81018390048302850183019091528084529381019390830182828015610b0a5780601f10610adf57610100808354040283529160200191610b0a565b820191906000526020600020905b815481529060010190602001808311610aed57829003601f168201915b505050918352505060038201805460408051602060026001851615610100026000190190941693909304601f8101849004840282018401909252818152938201939291830182828015610b9e5780601f10610b7357610100808354040283529160200191610b9e565b820191906000526020600020905b815481529060010190602001808311610b8157829003601f168201915b505050918352505060048201805460408051602060026001851615610100026000190190941693909304601f8101849004840282018401909252818152938201939291830182828015610c325780601f10610c0757610100808354040283529160200191610c32565b820191906000526020600020905b815481529060010190602001808311610c1557829003601f168201915b505050918352505060058201805460408051602060026001851615610100026000190190941693909304601f8101849004840282018401909252818152938201939291830182828015610cc65780601f10610c9b57610100808354040283529160200191610cc6565b820191906000526020600020905b815481529060010190602001808311610ca957829003601f168201915b505050918352505060068201805460408051602060026001851615610100026000190190941693909304601f8101849004840282018401909252818152938201939291830182828015610d5a5780601f10610d2f57610100808354040283529160200191610d5a565b820191906000526020600020905b815481529060010190602001808311610d3d57829003601f168201915b5050509183525050600882015460208083019190915260098301805460408051601f60026000196101006001871615020190941693909304928301859004850281018501825282815294019392830182828015610df85780601f10610dcd57610100808354040283529160200191610df8565b820191906000526020600020905b815481529060010190602001808311610ddb57829003601f168201915b5050509183525050600a919091015460ff161515602091820152815160c083015161010084015160e085015193850151604090950151929d919c509a5091985091965090945092505050565b33600090815260016020526040902080546060919083908110610e6357fe5b600091825260209182902001805460408051601f6002600019610100600187161502019094169390930492830185900485028101850190915281815292830182828015610ef15780601f10610ec657610100808354040283529160200191610ef1565b820191906000526020600020905b815481529060010190602001808311610ed457829003601f168201915b50505050509050919050565b6101406040519081016040528089815260200188815260200187815260200186815260200185815260200184815260200183815260200160008152602001828152602001600115158152506000846040518082805190602001908083835b60208310610f7a5780518252601f199092019160209182019101610f5b565b51815160209384036101000a6000190180199092169116179052920194855250604051938490038101909320845180519194610fbb94508593500190611791565b506020828101518051610fd49260018501920190611791565b5060408201518051610ff0916002840191602090910190611791565b506060820151805161100c916003840191602090910190611791565b5060808201518051611028916004840191602090910190611791565b5060a08201518051611044916005840191602090910190611791565b5060c08201518051611060916006840191602090910190611791565b5060e082015160088201556101008201518051611087916009840191602090910190611791565b506101209190910151600a909101805460ff19169115159190911790555050505050505050565b606060006060806060806110c061180f565b6000896040518082805190602001908083835b602083106110f25780518252601f1990920191602091820191016110d3565b6001836020036101000a0380198251168184511680821785525050505050509050019150509081526020016040518091039020600701600089815260200190815260200160002060c06040519081016040529081600082018054600181600116156101000203166002900480601f0160208091040260200160405190810160405280929190818152602001828054600181600116156101000203166002900480156111de5780601f106111b3576101008083540402835291602001916111de565b820191906000526020600020905b8154815290600101906020018083116111c157829003601f168201915b50505050508152602001600182018054600181600116156101000203166002900480601f0160208091040260200160405190810160405280929190818152602001828054600181600116156101000203166002900480156112805780601f1061125557610100808354040283529160200191611280565b820191906000526020600020905b81548152906001019060200180831161126357829003601f168201915b505050918352505060028281015473ffffffffffffffffffffffffffffffffffffffff1660208084019190915260038401805460408051601f600019600185161561010002019093169590950491820184900484028501840181528185529094019390918301828280156113355780601f1061130a57610100808354040283529160200191611335565b820191906000526020600020905b81548152906001019060200180831161131857829003601f168201915b5050509183525050600482015460208083019190915260058301805460408051601f600260001961010060018716150201909416939093049283018590048502810185018252828152940193928301828280156113d35780601f106113a8576101008083540402835291602001916113d3565b820191906000526020600020905b8154815290600101906020018083116113b657829003601f168201915b50505091909252505081516020830151606084015160a0909401519c9d9b9c919b909a50929850965090945050505050565b61140d61180f565b60c0604051908101604052808681526020018581526020013373ffffffffffffffffffffffffffffffffffffffff168152602001848152602001428152602001838152509050806000876040518082805190602001908083835b602083106114865780518252601f199092019160209182019101611467565b6001836020036101000a0380198251168184511680821785525050505050509050019150509081526020016040518091039020600701600080896040518082805190602001908083835b602083106114ef5780518252601f1990920191602091820191016114d0565b51815160209384036101000a6000190180199092169116179052920194855250604080519485900382019094206008015485528481019590955250500160002082518051919261154492849290910190611791565b50602082810151805161155d9260018501920190611791565b50604082015160028201805473ffffffffffffffffffffffffffffffffffffffff191673ffffffffffffffffffffffffffffffffffffffff909216919091179055606082015180516115b9916003840191602090910190611791565b506080820151600482015560a082015180516115df916005840191602090910190611791565b509050506000866040518082805190602001908083835b602083106116155780518252601f1990920191602091820191016115f6565b6001836020036101000a0380198251168184511680821785525050505050509050019150509081526020016040518091039020600801546001016000876040518082805190602001908083835b602083106116815780518252601f199092019160209182019101611662565b51815160209384036101000a60001901801990921691161790529201948552506040519384900301909220600801929092555050505050505050565b600080826040518082805190602001908083835b602083106116f05780518252601f1990920191602091820191016116d1565b51815160209384036101000a6000190180199092169116179052920194855250604051938490030190922060080154949350505050565b336000908152600160205260409020545b90565b610140604051908101604052806060815260200160608152602001606081526020016060815260200160608152602001606081526020016060815260200160008152602001606081526020016000151581525090565b828054600181600116156101000203166002900490600052602060002090601f016020900481019282601f106117d257805160ff19168380011785556117ff565b828001600101855582156117ff579182015b828111156117ff5782518255916020019190600101906117e4565b5061180b92915061185c565b5090565b60c0604051908101604052806060815260200160608152602001600073ffffffffffffffffffffffffffffffffffffffff1681526020016060815260200160008152602001606081525090565b61173891905b8082111561180b57600081556001016118625600a165627a7a7230582064d147cd4c1483461e720fd9eafdf2723bb6dfe353067f6f6e68dae72ac230590029",
  "source": "pragma solidity ^0.4.24;\n\ncontract Court\n{\n    struct Evidence{\n        string description;\n        string fileHash; // ipfs file hash to access the evidence media file\n        address owner; // the person who is uploading the evidence (one of either firstParty or the secondParty)\n        // string evidenceId;\n        string evidenceType; // 'documentary' / 'audio' / 'video'\n        uint timestamp; // uploaded to blockchain time\n        string createdDateTime; // 'ISO datetime string, tells evidence creation true time reported by party'\n    }\n\n    struct Case {\n        string courtId;\n        string firstParty;\n        string secondParty;\n        string judge;\n        string FIR;\n        string caseId;\n        string caseDescription;\n        mapping(uint => Evidence) evidences; // evidence[evidenceNum] = someEvidence\n        uint totalEvidences; // length of evidences\n        string startDateTime;\n        bool initialised;\n    }\n\n    mapping(string => Case) cases; // cases[caseId] = someCase;\n    mapping(address => string[]) casesGoingOn;\n\n    constructor() public { }\n\n    function registerCase(\n        string _courtId,\n        string _firstParty,\n        string _secondParty,\n        string _judge,\n        string _FIR,\n        string _caseId,\n        string _caseDescription,\n        string _startDateTime\n    ) public {\n        cases[_caseId] = Case({\n            courtId: _courtId,\n            firstParty: _firstParty,\n            secondParty: _secondParty,\n            judge: _judge,\n            FIR: _FIR,\n            caseId: _caseId,\n            caseDescription: _caseDescription,\n            totalEvidences: 0,\n            startDateTime: _startDateTime,\n            initialised: true\n        });\n        // add caseId to casesGoingOn mapping to user if not already exists\n        // addCase(_firstParty, _caseId);\n        // addCase(_secondParty, _caseId);\n    }\n\n    function addCase(address party, string caseId) private {\n        bool alreadyExists = false;\n        for (uint i = 0; i < casesGoingOn[party].length; i++)\n            if (compareString(casesGoingOn[party][i], caseId) == 0) alreadyExists = true;\n        if (alreadyExists) casesGoingOn[party].push(caseId);\n    }\n\n    function getNumCasesGoingOn() public view returns (uint) {\n        return casesGoingOn[msg.sender].length;\n    }\n\n    function getCaseGoingOn(uint index) public view returns (string) {\n        return casesGoingOn[msg.sender][index];\n    }\n\n    function compareString(\n        string _a,\n        string _b\n    ) private returns (int) {\n        bytes memory a = bytes(_a);\n        bytes memory b = bytes(_b);\n        uint minLength = a.length;\n        if (b.length < minLength) minLength = b.length;\n        //@todo unroll the loop into increments of 32 and do full 32 byte comparisons\n        for (uint i = 0; i < minLength; i ++)\n            if (a[i] < b[i]) return -1;\n            else if (a[i] > b[i]) return 1;\n        if (a.length < b.length) return -1;\n        else if (a.length > b.length) return 1;\n        else return 0;\n    }\n\n    function registerEvidence(\n        string _caseId,\n        string _description,\n        string _fileHash,\n        string _evidenceType,\n        string _createdDateTime\n    ) public {\n        // require(\n        //     msg.sender == cases[_caseId].firstParty || msg.sender == cases[_caseId].secondParty,\n        //     \"You must be either of parties to register an evidence\"\n        // );\n        Evidence memory newEvidence = Evidence({\n            description: _description,\n            fileHash: _fileHash,\n            owner: msg.sender,\n            evidenceType: _evidenceType,\n            createdDateTime: _createdDateTime,\n            timestamp: now\n        });\n        cases[_caseId].evidences[cases[_caseId].totalEvidences] = newEvidence;\n        cases[_caseId].totalEvidences = cases[_caseId].totalEvidences + 1;\n    }\n\n    function getCaseById(\n        string caseId\n    ) public view returns (string, string, string, uint, string, string) {\n        // // require(cases[caseId].initialised, \"No such case exists!\");\n        Case memory reqcase = cases[caseId];\n        return (\n            reqcase.courtId,\n            reqcase.caseDescription,\n            reqcase.startDateTime,\n            reqcase.totalEvidences,\n            reqcase.firstParty,\n            reqcase.secondParty\n        );\n    }\n\n    function getEvidenceCount(\n        string caseId\n    ) public view returns (uint) {\n        return cases[caseId].totalEvidences;\n    }\n\n    function getEvidenceById(\n        string caseId,\n        uint evidenceId\n    ) public view returns (string, uint, string, string, string, string) {\n        Evidence memory evd = cases[caseId].evidences[evidenceId];\n        return (\n            caseId,\n            evidenceId,\n            evd.description,\n            evd.fileHash,\n            evd.evidenceType,\n            evd.createdDateTime\n        );\n    }\n\n    // function registerDetective() public returns (address) {\n    //     players.push(msg.sender);\n    //     return detective;\n    // }\n\n    // function registerForensic() public returns (address) {\n    //     players.push(msg.sender);\n    //     return forensic;\n    // }\n\n    // function getEvidence(uint _id) public view returns(string, uint, string, address, uint) {\n    //     Evidence memory evd = evds[_id];\n    //     return (\n    //         evd.description,\n    //         evd.caseNumber,\n    //         evd.hash,\n    //         evd.owner,\n    //         evd.timestamp\n    //     );\n    // }\n\n}\n",
  "sourcePath": "/Users/akshat/Desktop/LegitChain-IIITD/contracts/Court.sol",
  "compiler": {
    "name": "solc",
    "version": "0.4.24+commit.e67f0147.Emscripten.clang"
  },
  "schemaVersion": "2.0.1",
  "updatedAt": "2018-08-17T22:49:03.605Z"
}